{
  "contractName": "multiSigWallet",
  "abi": [
    {
      "inputs": [
        {
          "internalType": "address[]",
          "name": "_approvers",
          "type": "address[]"
        },
        {
          "internalType": "uint256",
          "name": "_quorum",
          "type": "uint256"
        }
      ],
      "stateMutability": "nonpayable",
      "type": "constructor"
    },
    {
      "inputs": [
        {
          "internalType": "address",
          "name": "",
          "type": "address"
        },
        {
          "internalType": "uint256",
          "name": "",
          "type": "uint256"
        }
      ],
      "name": "approvals",
      "outputs": [
        {
          "internalType": "bool",
          "name": "",
          "type": "bool"
        }
      ],
      "stateMutability": "view",
      "type": "function"
    },
    {
      "inputs": [
        {
          "internalType": "uint256",
          "name": "",
          "type": "uint256"
        }
      ],
      "name": "approvers",
      "outputs": [
        {
          "internalType": "address",
          "name": "",
          "type": "address"
        }
      ],
      "stateMutability": "view",
      "type": "function"
    },
    {
      "inputs": [],
      "name": "quorum",
      "outputs": [
        {
          "internalType": "uint256",
          "name": "",
          "type": "uint256"
        }
      ],
      "stateMutability": "view",
      "type": "function"
    },
    {
      "inputs": [
        {
          "internalType": "uint256",
          "name": "",
          "type": "uint256"
        }
      ],
      "name": "transfers",
      "outputs": [
        {
          "internalType": "uint256",
          "name": "id",
          "type": "uint256"
        },
        {
          "internalType": "uint256",
          "name": "amount",
          "type": "uint256"
        },
        {
          "internalType": "address payable",
          "name": "to",
          "type": "address"
        },
        {
          "internalType": "uint256",
          "name": "approvals",
          "type": "uint256"
        },
        {
          "internalType": "bool",
          "name": "sent",
          "type": "bool"
        }
      ],
      "stateMutability": "view",
      "type": "function"
    },
    {
      "stateMutability": "payable",
      "type": "receive"
    },
    {
      "inputs": [],
      "name": "getApprovers",
      "outputs": [
        {
          "internalType": "address[]",
          "name": "",
          "type": "address[]"
        }
      ],
      "stateMutability": "view",
      "type": "function"
    },
    {
      "inputs": [
        {
          "internalType": "uint256",
          "name": "_amount",
          "type": "uint256"
        },
        {
          "internalType": "address payable",
          "name": "_to",
          "type": "address"
        }
      ],
      "name": "createTransfer",
      "outputs": [],
      "stateMutability": "nonpayable",
      "type": "function"
    },
    {
      "inputs": [],
      "name": "getTransfers",
      "outputs": [
        {
          "components": [
            {
              "internalType": "uint256",
              "name": "id",
              "type": "uint256"
            },
            {
              "internalType": "uint256",
              "name": "amount",
              "type": "uint256"
            },
            {
              "internalType": "address payable",
              "name": "to",
              "type": "address"
            },
            {
              "internalType": "uint256",
              "name": "approvals",
              "type": "uint256"
            },
            {
              "internalType": "bool",
              "name": "sent",
              "type": "bool"
            }
          ],
          "internalType": "struct multiSigWallet.Transfer[]",
          "name": "",
          "type": "tuple[]"
        }
      ],
      "stateMutability": "view",
      "type": "function"
    },
    {
      "inputs": [
        {
          "internalType": "uint256",
          "name": "_id",
          "type": "uint256"
        }
      ],
      "name": "approveTransfer",
      "outputs": [],
      "stateMutability": "nonpayable",
      "type": "function"
    }
  ],
  "bytecode": "0x60806040523480156200001157600080fd5b506040516200151d3803806200151d8339818101604052810190620000379190620001dd565b81600090805190602001906200004f9291906200005f565b508060018190555050506200033b565b828054828255906000526020600020908101928215620000db579160200282015b82811115620000da5782518260006101000a81548173ffffffffffffffffffffffffffffffffffffffff021916908373ffffffffffffffffffffffffffffffffffffffff1602179055509160200191906001019062000080565b5b509050620000ea9190620000ee565b5090565b5b8082111562000109576000816000905550600101620000ef565b5090565b6000620001246200011e846200026b565b62000237565b905080838252602082019050828560208602820111156200014457600080fd5b60005b858110156200017857816200015d888262000182565b84526020840193506020830192505060018101905062000147565b5050509392505050565b600081519050620001938162000307565b92915050565b600082601f830112620001ab57600080fd5b8151620001bd8482602086016200010d565b91505092915050565b600081519050620001d78162000321565b92915050565b60008060408385031215620001f157600080fd5b600083015167ffffffffffffffff8111156200020c57600080fd5b6200021a8582860162000199565b92505060206200022d85828601620001c6565b9150509250929050565b6000604051905081810181811067ffffffffffffffff82111715620002615762000260620002d8565b5b8060405250919050565b600067ffffffffffffffff821115620002895762000288620002d8565b5b602082029050602081019050919050565b6000620002a782620002ae565b9050919050565b600073ffffffffffffffffffffffffffffffffffffffff82169050919050565b6000819050919050565b7f4e487b7100000000000000000000000000000000000000000000000000000000600052604160045260246000fd5b62000312816200029a565b81146200031e57600080fd5b50565b6200032c81620002ce565b81146200033857600080fd5b50565b6111d2806200034b6000396000f3fe60806040526004361061007f5760003560e01c80639377d7111161004e5780639377d71114610135578063cacca4a014610176578063d3650fb81461019f578063ffabc673146101dc57610086565b80631703a0181461008b5780632f65142c146100b65780634c12fa47146100e15780636cb3e8ef1461010a57610086565b3661008657005b600080fd5b34801561009757600080fd5b506100a0610219565b6040516100ad9190610f94565b60405180910390f35b3480156100c257600080fd5b506100cb61021f565b6040516100d89190610ef7565b60405180910390f35b3480156100ed57600080fd5b5061010860048036038101906101039190610bf2565b61030d565b005b34801561011657600080fd5b5061011f610513565b60405161012c9190610ed5565b60405180910390f35b34801561014157600080fd5b5061015c60048036038101906101579190610bc9565b6105a1565b60405161016d959493929190610faf565b60405180910390f35b34801561018257600080fd5b5061019d60048036038101906101989190610bc9565b610614565b005b3480156101ab57600080fd5b506101c660048036038101906101c19190610bc9565b610ae0565b6040516101d39190610eba565b60405180910390f35b3480156101e857600080fd5b5061020360048036038101906101fe9190610b8d565b610b1f565b6040516102109190610f19565b60405180910390f35b60015481565b60606002805480602002602001604051908101604052809291908181526020016000905b8282101561030457838290600052602060002090600502016040518060a001604052908160008201548152602001600182015481526020016002820160009054906101000a900473ffffffffffffffffffffffffffffffffffffffff1673ffffffffffffffffffffffffffffffffffffffff1673ffffffffffffffffffffffffffffffffffffffff168152602001600382015481526020016004820160009054906101000a900460ff16151515158152505081526020019060010190610243565b50505050905090565b6000805b6000805490508110156103ce573373ffffffffffffffffffffffffffffffffffffffff166000828154811061036f577f4e487b7100000000000000000000000000000000000000000000000000000000600052603260045260246000fd5b9060005260206000200160009054906101000a900473ffffffffffffffffffffffffffffffffffffffff1673ffffffffffffffffffffffffffffffffffffffff1614156103bb57600191505b80806103c6906110df565b915050610311565b506001151581151514610416576040517f08c379a000000000000000000000000000000000000000000000000000000000815260040161040d90610f54565b60405180910390fd5b60026040518060a0016040528060028054905081526020018581526020018473ffffffffffffffffffffffffffffffffffffffff16815260200160008152602001600015158152509080600181540180825580915050600190039060005260206000209060050201600090919091909150600082015181600001556020820151816001015560408201518160020160006101000a81548173ffffffffffffffffffffffffffffffffffffffff021916908373ffffffffffffffffffffffffffffffffffffffff1602179055506060820151816003015560808201518160040160006101000a81548160ff0219169083151502179055505050505050565b6060600080548060200260200160405190810160405280929190818152602001828054801561059757602002820191906000526020600020905b8160009054906101000a900473ffffffffffffffffffffffffffffffffffffffff1673ffffffffffffffffffffffffffffffffffffffff168152602001906001019080831161054d575b5050505050905090565b600281815481106105b157600080fd5b90600052602060002090600502016000915090508060000154908060010154908060020160009054906101000a900473ffffffffffffffffffffffffffffffffffffffff16908060030154908060040160009054906101000a900460ff16905085565b6000805b6000805490508110156106d5573373ffffffffffffffffffffffffffffffffffffffff1660008281548110610676577f4e487b7100000000000000000000000000000000000000000000000000000000600052603260045260246000fd5b9060005260206000200160009054906101000a900473ffffffffffffffffffffffffffffffffffffffff1673ffffffffffffffffffffffffffffffffffffffff1614156106c257600191505b80806106cd906110df565b915050610618565b50600115158115151461071d576040517f08c379a000000000000000000000000000000000000000000000000000000000815260040161071490610f54565b60405180910390fd5b600015156002838154811061075b577f4e487b7100000000000000000000000000000000000000000000000000000000600052603260045260246000fd5b906000526020600020906005020160040160009054906101000a900460ff161515146107bc576040517f08c379a00000000000000000000000000000000000000000000000000000000081526004016107b390610f34565b60405180910390fd5b60001515600360003373ffffffffffffffffffffffffffffffffffffffff1673ffffffffffffffffffffffffffffffffffffffff168152602001908152602001600020600084815260200190815260200160002060009054906101000a900460ff16151514610860576040517f08c379a000000000000000000000000000000000000000000000000000000000815260040161085790610f74565b60405180910390fd5b60011515600360003373ffffffffffffffffffffffffffffffffffffffff1673ffffffffffffffffffffffffffffffffffffffff168152602001908152602001600020600084815260200190815260200160002060009054906101000a90505050600282815481106108fb577f4e487b7100000000000000000000000000000000000000000000000000000000600052603260045260246000fd5b9060005260206000209060050201600301600081548092919061091d906110df565b91905055506001546002838154811061095f577f4e487b7100000000000000000000000000000000000000000000000000000000600052603260045260246000fd5b90600052602060002090600502016003015410610adc5760011515600283815481106109b4577f4e487b7100000000000000000000000000000000000000000000000000000000600052603260045260246000fd5b906000526020600020906005020160040160009054906101000a90505050600060028381548110610a0e577f4e487b7100000000000000000000000000000000000000000000000000000000600052603260045260246000fd5b906000526020600020906005020160020160009054906101000a900473ffffffffffffffffffffffffffffffffffffffff169050600060028481548110610a7e577f4e487b7100000000000000000000000000000000000000000000000000000000600052603260045260246000fd5b90600052602060002090600502016001015490508173ffffffffffffffffffffffffffffffffffffffff166108fc829081150290604051600060405180830381858888f19350505050158015610ad8573d6000803e3d6000fd5b5050505b5050565b60008181548110610af057600080fd5b906000526020600020016000915054906101000a900473ffffffffffffffffffffffffffffffffffffffff1681565b60036020528160005260406000206020528060005260406000206000915091509054906101000a900460ff1681565b600081359050610b5d81611157565b92915050565b600081359050610b728161116e565b92915050565b600081359050610b8781611185565b92915050565b60008060408385031215610ba057600080fd5b6000610bae85828601610b4e565b9250506020610bbf85828601610b78565b9150509250929050565b600060208284031215610bdb57600080fd5b6000610be984828501610b78565b91505092915050565b60008060408385031215610c0557600080fd5b6000610c1385828601610b78565b9250506020610c2485828601610b63565b9150509250929050565b6000610c3a8383610c7c565b60208301905092915050565b6000610c528383610e34565b60a08301905092915050565b610c6781611097565b82525050565b610c7681611097565b82525050565b610c8581611085565b82525050565b610c9481611085565b82525050565b6000610ca582611022565b610caf8185611052565b9350610cba83611002565b8060005b83811015610ceb578151610cd28882610c2e565b9750610cdd83611038565b925050600181019050610cbe565b5085935050505092915050565b6000610d038261102d565b610d0d8185611063565b9350610d1883611012565b8060005b83811015610d49578151610d308882610c46565b9750610d3b83611045565b925050600181019050610d1c565b5085935050505092915050565b610d5f816110a9565b82525050565b610d6e816110a9565b82525050565b6000610d81601983611074565b91507f7472616e736665722068617320616c72656164792073656e74000000000000006000830152602082019050919050565b6000610dc1601583611074565b91507f6f6e6c7920617070726f76657220616c6c6f77656400000000000000000000006000830152602082019050919050565b6000610e01601d83611074565b91507f63616e6e6f7420617070726f7665207472616e736665722074776963650000006000830152602082019050919050565b60a082016000820151610e4a6000850182610e9c565b506020820151610e5d6020850182610e9c565b506040820151610e706040850182610c5e565b506060820151610e836060850182610e9c565b506080820151610e966080850182610d56565b50505050565b610ea5816110d5565b82525050565b610eb4816110d5565b82525050565b6000602082019050610ecf6000830184610c8b565b92915050565b60006020820190508181036000830152610eef8184610c9a565b905092915050565b60006020820190508181036000830152610f118184610cf8565b905092915050565b6000602082019050610f2e6000830184610d65565b92915050565b60006020820190508181036000830152610f4d81610d74565b9050919050565b60006020820190508181036000830152610f6d81610db4565b9050919050565b60006020820190508181036000830152610f8d81610df4565b9050919050565b6000602082019050610fa96000830184610eab565b92915050565b600060a082019050610fc46000830188610eab565b610fd16020830187610eab565b610fde6040830186610c6d565b610feb6060830185610eab565b610ff86080830184610d65565b9695505050505050565b6000819050602082019050919050565b6000819050602082019050919050565b600081519050919050565b600081519050919050565b6000602082019050919050565b6000602082019050919050565b600082825260208201905092915050565b600082825260208201905092915050565b600082825260208201905092915050565b6000611090826110b5565b9050919050565b60006110a2826110b5565b9050919050565b60008115159050919050565b600073ffffffffffffffffffffffffffffffffffffffff82169050919050565b6000819050919050565b60006110ea826110d5565b91507fffffffffffffffffffffffffffffffffffffffffffffffffffffffffffffffff82141561111d5761111c611128565b5b600182019050919050565b7f4e487b7100000000000000000000000000000000000000000000000000000000600052601160045260246000fd5b61116081611085565b811461116b57600080fd5b50565b61117781611097565b811461118257600080fd5b50565b61118e816110d5565b811461119957600080fd5b5056fea2646970667358221220e63f4d51cfa392a0a8b704e927da76c271db55de552206318cd83f821ab4421864736f6c63430008000033",
  "immutableReferences": {},
  "source": "// SPDX-License-Identifier: Uindentified\r\npragma solidity ^0.8.0;\r\n\r\ncontract multiSigWallet {\r\n    address[] public approvers;\r\n    uint256 public quorum; //Min No. of approvals required to process transaction\r\n    struct Transfer {\r\n        uint256 id;\r\n        uint256 amount;\r\n        address payable to;\r\n        uint256 approvals;\r\n        bool sent;\r\n    }\r\n    Transfer[] public transfers;\r\n    mapping(address => mapping(uint256 => bool)) public approvals; //who is approving which transactions by ids\r\n\r\n    constructor(address[] memory _approvers, uint256 _quorum) {\r\n        approvers = _approvers;\r\n        quorum = _quorum;\r\n    }\r\n\r\n    //Since the approvers variable will have own get function but it will return single address, to get all addresses\r\n    //we create our own get function\r\n    function getApprovers() external view returns (address[] memory) {\r\n        return approvers;\r\n    }\r\n\r\n    //create transfer function\r\n    function createTransfer(uint256 _amount, address payable _to)\r\n        external\r\n        onlyApprover\r\n    {\r\n        transfers.push(Transfer(transfers.length, _amount, _to, 0, false));\r\n    }\r\n\r\n    //Since the transfers variable will have own get function but it will return single element, to get all elements\r\n    //we create our own get function\r\n    //if returning struct from function gets error add \"pragma experimental ABIEncoderV2\", because of outdated compiler\r\n    function getTransfers() external view returns (Transfer[] memory) {\r\n        return transfers;\r\n    }\r\n\r\n    function approveTransfer(uint256 _id) external onlyApprover {\r\n        require(transfers[_id].sent == false, \"transfer has already sent\");\r\n        require(\r\n            approvals[msg.sender][_id] == false,\r\n            \"cannot approve transfer twice\"\r\n        );\r\n        approvals[msg.sender][_id] == true;\r\n        transfers[_id].approvals++;\r\n\r\n        if (transfers[_id].approvals >= quorum) {\r\n            transfers[_id].sent == true;\r\n            address payable to = transfers[_id].to;\r\n            uint256 amount = transfers[_id].amount;\r\n            to.transfer(amount);\r\n        }\r\n    }\r\n\r\n    //receive ether\r\n    receive() external payable {} //to send ether to smart contract address\r\n\r\n    modifier onlyApprover() {\r\n        bool allowed = false;\r\n        for (uint256 i = 0; i < approvers.length; i++) {\r\n            if (approvers[i] == msg.sender) {\r\n                allowed = true;\r\n            }\r\n        }\r\n        require(allowed == true, \"only approver allowed\");\r\n        _;\r\n    }\r\n}\r\n",
  "sourcePath": "C:\\Users\\Obaid\\multi-sig-wallet\\contracts\\Wallet.sol",
  "compiler": {
    "name": "solc",
    "version": "0.8.0+commit.c7dfd78e.Emscripten.clang"
  },
  "schemaVersion": "3.4.3",
  "updatedAt": "2022-06-06T20:03:22.772Z",
  "devdoc": {
    "kind": "dev",
    "methods": {},
    "version": 1
  },
  "userdoc": {
    "kind": "user",
    "methods": {},
    "version": 1
  }
}